BL51 BANKED LINKER/LOCATER V6.22.2.0                                                    01/19/2022  20:29:42  PAGE 1


BL51 BANKED LINKER/LOCATER V6.22.2.0, INVOKED BY:
C:\KEIL_V5\C51\BIN\BL51.EXE .\Objects\main.obj TO .\Objects\USBSW PRINT (.\Listings\USBSW.m51) RAMSIZE (256)


MEMORY MODEL: SMALL


INPUT MODULES INCLUDED:
  .\Objects\main.obj (MAIN)
  C:\KEIL_V5\C51\LIB\C51S.LIB (?C_STARTUP)


LINK MAP OF MODULE:  .\Objects\USBSW (MAIN)


            TYPE    BASE      LENGTH    RELOCATION   SEGMENT NAME
            -----------------------------------------------------

            * * * * * * *   D A T A   M E M O R Y   * * * * * * *
            REG     0000H     0008H     ABSOLUTE     "REG BANK 0"
            DATA    0008H     0002H     UNIT         _DATA_GROUP_
                    000AH     0016H                  *** GAP ***
            BIT     0020H.0   0000H.2   UNIT         ?BI?MAIN
                    0020H.2   0000H.6                *** GAP ***
            IDATA   0021H     0001H     UNIT         ?STACK

            * * * * * * *   C O D E   M E M O R Y   * * * * * * *
            CODE    0000H     0003H     ABSOLUTE     
            CODE    0003H     006EH     UNIT         ?PR?MAIN?MAIN
            CODE    0071H     001EH     UNIT         ?PR?_DELAYMS?MAIN
            CODE    008FH     000CH     UNIT         ?C_C51STARTUP



OVERLAY MAP OF MODULE:   .\Objects\USBSW (MAIN)


SEGMENT                          DATA_GROUP 
  +--> CALLED SEGMENT          START    LENGTH
----------------------------------------------
?C_C51STARTUP                  -----    -----
  +--> ?PR?MAIN?MAIN

?PR?MAIN?MAIN                  -----    -----
  +--> ?PR?_DELAYMS?MAIN

?PR?_DELAYMS?MAIN              0008H    0002H



SYMBOL TABLE OF MODULE:  .\Objects\USBSW (MAIN)

  VALUE           TYPE          NAME
  ----------------------------------

  -------         MODULE        MAIN
  C:0000H         SYMBOL        _ICE_DUMMY_
  D:0092H         PUBLIC        P1M0
BL51 BANKED LINKER/LOCATER V6.22.2.0                                                  01/19/2022  20:29:42  PAGE 2


  D:0093H         PUBLIC        P0M1
  D:0096H         PUBLIC        P2M0
  D:0091H         PUBLIC        P1M1
  D:0080H         PUBLIC        P0
  D:00B2H         PUBLIC        P3M0
  D:0095H         PUBLIC        P2M1
  D:0090H         PUBLIC        P1
  D:00B4H         PUBLIC        P4M0
  D:00B1H         PUBLIC        P3M1
  D:00A0H         PUBLIC        P2
  D:00CAH         PUBLIC        P5M0
  D:00B3H         PUBLIC        P4M1
  D:00B0H         PUBLIC        P3
  D:00CCH         PUBLIC        P6M0
  D:00C9H         PUBLIC        P5M1
  D:00C0H         PUBLIC        P4
  D:00E2H         PUBLIC        P7M0
  D:00CBH         PUBLIC        P6M1
  D:00C8H         PUBLIC        P5
  D:00E1H         PUBLIC        P7M1
  D:00E8H         PUBLIC        P6
  D:00F8H         PUBLIC        P7
  D:00A8H         PUBLIC        IE
  D:00B8H         PUBLIC        IP
  D:00D8H         PUBLIC        CCON
  C:0003H         PUBLIC        main
  D:0098H         PUBLIC        SCON
  D:0088H         PUBLIC        TCON
  B:00B0H.3       PUBLIC        P33
  B:00B0H.4       PUBLIC        P34
  B:00B0H.5       PUBLIC        P35
  B:00B0H.6       PUBLIC        P36
  B:00B0H.7       PUBLIC        P37
  C:0077H         PUBLIC        _Delayms
  B:0020H.0       PUBLIC        key0
  D:00D0H         PUBLIC        PSW
  B:0020H.1       PUBLIC        key1
  D:0094H         PUBLIC        P0M0
  -------         PROC          L?0017
  -------         ENDPROC       L?0017
  -------         PROC          _DELAYMS
  D:0006H         SYMBOL        k
  -------         DO            
  D:0008H         SYMBOL        i
  D:0009H         SYMBOL        j
  -------         ENDDO         
  C:0077H         LINE#         10
  C:0077H         LINE#         11
  C:0077H         LINE#         12
  C:007BH         LINE#         13
  C:007BH         LINE#         15
  C:007EH         LINE#         16
  C:0081H         LINE#         18
  C:0081H         LINE#         19
  C:0084H         LINE#         20
  C:0087H         LINE#         21
  C:008CH         LINE#         22
BL51 BANKED LINKER/LOCATER V6.22.2.0                                                  01/19/2022  20:29:42  PAGE 3


  C:008EH         LINE#         23
  -------         ENDPROC       _DELAYMS
  -------         PROC          MAIN
  C:0003H         LINE#         26
  C:0003H         LINE#         27
  C:0003H         LINE#         28
  C:0006H         LINE#         29
  C:0008H         LINE#         30
  C:000AH         LINE#         31
  C:000CH         LINE#         32
  C:000EH         LINE#         33
  C:0010H         LINE#         34
  C:0013H         LINE#         35
  C:0016H         LINE#         36
  C:0018H         LINE#         37
  C:001AH         LINE#         38
  C:001CH         LINE#         39
  C:001EH         LINE#         40
  C:0020H         LINE#         41
  C:0022H         LINE#         42
  C:0024H         LINE#         43
  C:0026H         LINE#         49
  C:0028H         LINE#         50
  C:002AH         LINE#         51
  C:002CH         LINE#         52
  C:002EH         LINE#         53
  C:0034H         LINE#         54
  C:0036H         LINE#         55
  C:003DH         LINE#         56
  C:003FH         LINE#         57
  C:003FH         LINE#         58
  C:003FH         LINE#         59
  C:0045H         LINE#         60
  C:0045H         LINE#         61
  C:0047H         LINE#         62
  C:004AH         LINE#         63
  C:004AH         LINE#         64
  C:004CH         LINE#         65
  C:004EH         LINE#         66
  C:004EH         LINE#         67
  C:0051H         LINE#         68
  C:0053H         LINE#         69
  C:0053H         LINE#         70
  C:0053H         LINE#         71
  C:0055H         LINE#         73
  C:0055H         LINE#         74
  C:0057H         LINE#         75
  C:0059H         LINE#         76
  C:0059H         LINE#         77
  C:005CH         LINE#         78
  C:005EH         LINE#         79
  C:0065H         LINE#         80
  C:0067H         LINE#         81
  C:0067H         LINE#         82
  C:0067H         LINE#         83
  C:006BH         LINE#         84
  C:006FH         LINE#         86
BL51 BANKED LINKER/LOCATER V6.22.2.0                                                  01/19/2022  20:29:42  PAGE 4


  -------         ENDPROC       MAIN
  -------         ENDMOD        MAIN

Program Size: data=11.2 xdata=0 code=155
LINK/LOCATE RUN COMPLETE.  0 WARNING(S),  0 ERROR(S)
